:100000000C942A000C9447000C9447000C94470071
:100010000C9447000C9447000C9447000C94470044
:100020000C9447000C9447000C9447000C94470034
:100030000C9447000C9447000C9447000C94470024
:100040000C9447000C9447000C9447000C94470014
:100050000C94470011241FBECFE5D8E0DEBFCDBF12
:1000600010E0A0E6B0E0EAE4F2E202C005900D92F2
:10007000A83AB107D9F710E0A8EAB0E001C01D9294
:10008000AA3AB107E1F70E94C90B0C9423110C9412
:10009000000000C0FFCFEF92FF920F931F937B01F0
:1000A0008C0120E030E040E05FE40E944B038823B5
:1000B0008CF0C801B70120E030E040E05FE40E942E
:1000C000C3010E94AB039B01AC0120503040404073
:1000D000504806C0C801B7010E94AB039B01AC01A8
:1000E000B901CA011F910F91FF90EF900895A0E010
:1000F000B0E0EDE7F0E00C94A710DC012B01FA0171
:100100009C91923008F439C1EB018881823008F467
:1001100033C1943069F4843009F02FC111969C9159
:1001200011978981981709F428C1ACE9B0E025C17D
:10013000843009F421C18230A9F4923009F01DC144
:100140009A01AD0188E0EA010990AE01E901099246
:100150009E018150C1F7E201898111969C9189230A
:10016000818308C1923009F407C112962D903C900A
:100170001397EB018A819B811496AD90BD90CD9031
:10018000DC901797EC80FD800E811F819101281B68
:10019000390BB90137FF04C066277727621B730B41
:1001A000603271050CF061C0121613066CF5370150
:1001B0004801062E04C096948794779467940A9415
:1001C000D2F721E030E040E050E004C0220F331FBE
:1001D000441F551F6A95D2F721503040404050408F
:1001E0002E213F2140235123211531054105510581
:1001F00021F021E030E040E050E079018A01E6287A
:10020000F728082919293CC0232BD1F1260E371EC7
:1002100035014601062E04C096948794779467941E
:100220000A94D2F721E030E040E050E004C0220F11
:10023000331F441F551F6A95D2F72150304040406C
:1002400050402A213B214C215D21211531054105DA
:10025000510521F021E030E040E050E059016A0111
:10026000A628B728C828D9280BC0821593052CF0DA
:100270001C01AA24BB24650103C0EE24FF248701CE
:1002800011969C91D20111968C91981709F445C052
:10029000992339F0A80197012A193B094C095D09F6
:1002A00006C0A60195012E193F09400B510B57FDC1
:1002B00008C0118233822282248335834683578388
:1002C0001DC081E081833382228288279927DC0147
:1002D000821B930BA40BB50B84839583A683B783F2
:1002E0000DC0220F331F441F551F248335834683BF
:1002F00057838281938101979383828324813581FF
:1003000046815781DA01C9010197A109B1098F5FBF
:100310009F4FAF4FBF4328F30BC09183338222829C
:10032000EA0CFB1C0C1D1D1DE482F582068317835D
:1003300083E08083248135814681578157FF1AC02D
:10034000C901AA2797FDA095BA2F81709070A0705F
:10035000B0705695479537952795822B932BA42BF4
:10036000B52B84839583A683B7838281938101967D
:1003700093838283DF0101C0D201CD01CDB7DEB707
:10038000E2E10C94C310A0E2B0E0E9ECF1E00C94DF
:10039000B31069837A838B839C832D833E834F8341
:1003A0005887E9E0EE2EF12CEC0EFD1ECE010196F1
:1003B000B7010E94D4048E010F5E1F4FCE01059637
:1003C000B8010E94D4048A8991E089278A8BC701E9
:1003D000B801AE01475E5F4F0E9477000E94FF03A5
:1003E000A096E6E00C94CF10A0E2B0E0EAEFF1E0D6
:1003F0000C94B31069837A838B839C832D833E8313
:100400004F835887F9E0EF2EF12CEC0EFD1ECE0144
:100410000196B7010E94D4048E010F5E1F4FCE01DA
:100420000596B8010E94D404C701B801AE01475E29
:100430005F4F0E9477000E94FF03A096E6E00C94B5
:10044000CF10A0E2B0E0E7E2F2E00C94A7106983DD
:100450007A838B839C832D833E834F835887CE0181
:100460000196BE01675F7F4F0E94D404CE010596BE
:10047000BE016F5E7F4F0E94D4049985923088F050
:1004800089898230C8F0943019F4823051F404C064
:10049000843029F4923081F48CE990E0C6C0923027
:1004A00049F420E09A858A89981321E02A87CE01B1
:1004B0000996BBC0823049F420E09A858A89981356
:1004C00021E02A8BCE014196B0C02D843E844F841A
:1004D00058886D887E888F88988CEE24FF24870149
:1004E000AA24BB24650140E050E060E070E0E0E059
:1004F000F0E0C10181709070892BE9F0E60CF71CE7
:10050000081D191D9A01AB012A0D3B1D4C1D5D1DD7
:1005100080E090E0A0E0B0E0E614F70408051905DB
:1005200020F481E090E0A0E0B0E0BA01A901480F1A
:10053000591F6A1F7B1FAA0CBB1CCC1CDD1C97FE1D
:1005400008C081E090E0A0E0B0E0A82AB92ACA2A59
:10055000DB2A3196E032F10549F0660C771C881CE5
:10056000991C5694479437942794C3CFFA85EA8907
:100570002B893C898B859C85280F391F2E5F3F4F27
:1005800017C0CA0181709070892B61F0169507958C
:10059000F794E79480E090E0A0E0B0E8E82AF92A38
:1005A0000A2B1B2B76956795579547952F5F3F4FE5
:1005B00077FDE7CF0CC0440F551F661F771F17FD4F
:1005C0004160EE0CFF1C001F111F215030404030D5
:1005D00090E0590790E0690790E4790760F32B8F6A
:1005E0003C8FDB01CA018F779070A070B0708034AF
:1005F0009105A105B10561F447FD0AC0E114F104BC
:100600000105110529F0405C5F4F6F4F7F4F407827
:100610001A8EFE1711F081E08A8F4D8F5E8F6F8FDB
:1006200078A383E0898FCE0149960E94FF03A096AC
:10063000E2E10C94C310A8E1B0E0E1E2F3E00C9435
:10064000B31069837A838B839C832D833E834F838E
:10065000588789E0E82EF12CEC0EFD1ECE010196A4
:10066000B7010E94D4048E010F5E1F4FCE01059684
:10067000B8010E94D4048985823040F08989823093
:1006800028F0C701B8010E944C0501C08FEF6896A1
:10069000E6E00C94CF10A8E1B0E0E1E5F3E00C94C3
:1006A000B31069837A838B839C832D833E834F832E
:1006B000588789E0E82EF12CEC0EFD1ECE01019644
:1006C000B7010E94D4048E010F5E1F4FCE01059624
:1006D000B8010E94D4048985823040F08989823033
:1006E00028F0C701B8010E944C0501C08FEF689641
:1006F000E6E00C94CF10A8E1B0E0E1E8F3E00C9460
:10070000B31069837A838B839C832D833E834F83CD
:10071000588789E0E82EF12CEC0EFD1ECE010196E3
:10072000B7010E94D4048E010F5E1F4FCE010596C3
:10073000B8010E94D4048985823040F089898230D2
:1007400028F0C701B8010E944C0501C081E06896FD
:10075000E6E00C94CF10ACE0B0E0E1EBF3E00C94F9
:10076000B71069837A838B839C83CE010196BE0187
:100770006B5F7F4F0E94D4048D81823061F18230A3
:1007800050F1843021F48E81882351F12EC02F81C5
:10079000388537FD20C06E812F3131051CF066236E
:1007A000F9F023C08EE190E0821B930B29853A85F6
:1007B0004B855C8504C056954795379527958A9556
:1007C000D2F76623B1F050954095309521953F4F73
:1007D0004F4F5F4F0EC020E030E040E050E009C0D6
:1007E0002FEF3FEF4FEF5FE704C020E030E040E045
:1007F00050E8B901CA012C96E2E00C94D310DF92C4
:10080000EF92FF920F931F93FC01E480F580068125
:100810001781D1808081823048F480E090E0A0E1AF
:10082000B0E0E82AF92A0A2B1B2BA5C0843009F472
:100830009FC0823021F4EE24FF24870105C0E1141B
:10084000F1040105110519F4E0E0F0E096C06281C1
:1008500073819FEF623879070CF05BC022E83FEFAD
:10086000261B370B2A3131052CF020E030E040E028
:1008700050E02AC0B801A701022E04C07695679502
:10088000579547950A94D2F781E090E0A0E0B0E058
:1008900004C0880F991FAA1FBB1F2A95D2F7019782
:1008A000A109B1098E219F21A023B1230097A105A1
:1008B000B10521F081E090E0A0E0B0E09A01AB0149
:1008C000282B392B4A2B5B2BDA01C9018F779070CB
:1008D000A070B07080349105A105B10539F427FFEF
:1008E00009C0205C3F4F4F4F5F4F04C0215C3F4F1A
:1008F0004F4F5F4FE0E0F0E02030A0E03A07A0E08B
:100900004A07A0E45A0710F0E1E0F0E079018A011B
:1009100027C06038710564F5FB01E158FF4FD8012D
:10092000C7018F779070A070B07080349105A105D9
:10093000B10539F4E7FE0DC080E490E0A0E0B0E03E
:1009400004C08FE390E0A0E0B0E0E80EF91E0A1FBB
:100950001B1F17FF05C016950795F794E79431966E
:1009600087E016950795F794E7948A95D1F705C027
:10097000EE24FF248701EFEFF0E06E2F67956627E6
:100980006795902F9F77D794DD24D7948E2F8695E7
:10099000492F462B582F5D29B701CA011F910F918E
:1009A000FF90EF90DF900895FC01DB0140815181C1
:1009B0002281622F6F7770E0221F2227221F9381EE
:1009C000892F880F822B282F30E0991F9927991F94
:1009D00011969C93119721153105A9F541155105E3
:1009E0006105710511F482E037C082E89FEF13962C
:1009F0009C938E9312979A01AB0167E0220F331FED
:100A0000441F551F6A95D1F783E08C930DC0220FC8
:100A1000331F441F551F12968D919C911397019778
:100A200013969C938E931297203080E0380780E0D5
:100A3000480780E4580758F314962D933D934D933F
:100A40005C93179708952F3F310579F441155105AF
:100A50006105710519F484E08C93089564FF03C067
:100A600081E08C9312C01C9210C02F573040139617
:100A70003C932E93129783E08C9387E0440F551F8D
:100A8000661F771F8A95D1F7706414964D935D9316
:100A90006D937C93179708951F93DC01FB019C9144
:100AA000923008F447C08081823008F443C094300B
:100AB00051F411961C91843099F58181682F70E072
:100AC000611B71093FC0843021F0923031F48230D3
:100AD000B9F18181882389F12DC011961C9111975C
:100AE0008230F1F081811817D9F412962D913C9142
:100AF0001397828193818217930794F028173907FF
:100B0000BCF014968D919D910D90BC91A02D2481E7
:100B1000358146815781281739074A075B0718F442
:100B2000112341F00AC082179307A407B50740F4C8
:100B3000112319F061E070E005C06FEF7FEF02C094
:100B400060E070E0CB011F910895DF93CF9300D058
:100B500000D0CDB7DEB71C821B8252C0AAE3B0E042
:100B6000EAE3F0E08081282F80E290E00B8002C071
:100B7000880F991F0A94E2F7822B8C93EBE3F0E045
:100B800080E290E00B8002C0880F991F0A94E2F780
:100B9000809580831A82198229C0E9E3F0E0808180
:100BA000882F90E0098002C0959587950A94E2F716
:100BB000817090700097A9F429813A81C901880F4A
:100BC000991F280F391F8B819C81820F931F0196DB
:100BD0000E9407060F900F900F900F90CF91DF911A
:100BE000089589819A8101969A83898389819A815E
:100BF0008430910594F28B819C8101969C838B8338
:100C00008B819C81833091050CF4A8CFA4CFDF9316
:100C1000CF9300D000D000D0CDB7DEB79A838983C0
:100C200089819A819E838D838D819E818A309105F1
:100C300081F08D819E818A309105C4F08D819E81E5
:100C40008B30910559F08D819E818C30910549F052
:100C50000DC08AE290E09C838B830CC01C821B82B7
:100C600009C083E290E09C838B8304C089819A81D0
:100C70009C838B838B819C8126960FB6F894DEBF74
:100C80000FBECDBFCF91DF910895DF93CF93CDB746
:100C9000DEB7E9970FB6F894DEBF0FBECDBF89AFC0
:100CA000A2E3B0E0E2E3F0E080818F778C93A2E3EF
:100CB000B0E0E2E3F0E080818F7B8C9380E090E015
:100CC000A0E8BFE38DAB9EABAFABB8AF6DA97EA97B
:100CD0008FA998AD20E030E04AEF54E40E94210251
:100CE000DC01CB0189AB9AABABABBCAB69A97AA9F0
:100CF0008BA99CA920E030E040E85FE30E947B03E1
:100D000088232CF481E090E098AB8FA73FC069A9BD
:100D10007AA98BA99CA920E03FEF4FE757E40E94F6
:100D20001B0318164CF56DA97EA98FA998AD20E07C
:100D300030E040E251E40E942102DC01CB01BC0121
:100D4000CD010E944B00DC01CB0198AB8FA70FC0F7
:100D500088EC90E09EA78DA78DA59EA50197F1F741
:100D60009EA78DA78FA598A9019798AB8FA78FA550
:100D700098A9009769F714C069A97AA98BA99CA9B9
:100D80000E944B00DC01CB0198AB8FA78FA598A9DF
:100D90009CA78BA78BA59CA50197F1F79CA78BA778
:100DA000A2E3B0E0E2E3F0E0808180628C9380E037
:100DB00090E0A0E8BFE38FA398A7A9A7BAA76FA167
:100DC00078A589A59AA520E030E04AEF54E40E9476
:100DD0002102DC01CB018BA39CA3ADA3BEA36BA11D
:100DE0007CA18DA19EA120E030E040E85FE30E945D
:100DF0007B0388232CF481E090E09AA389A33FC071
:100E00006BA17CA18DA19EA120E03FEF4FE757E4AD
:100E10000E941B0318164CF56FA178A589A59AA509
:100E200020E030E040E251E40E942102DC01CB01ED
:100E3000BC01CD010E944B00DC01CB019AA389A328
:100E40000FC088EC90E098A38F8F8F8D98A10197A9
:100E5000F1F798A38F8F89A19AA101979AA389A3EB
:100E600089A19AA1009769F714C06BA17CA18DA1FB
:100E70009EA10E944B00DC01CB019AA389A389A10A
:100E80009AA19E8F8D8F8D8D9E8D0197F1F79E8FEC
:100E90008D8FE5E3F0E089AD808380E090E0A0E80D
:100EA000BFE3898F9A8FAB8FBC8F698D7A8D8B8DC5
:100EB0009C8D20E030E04AEF54E40E942102DC01E6
:100EC000CB018D8B9E8BAF8BB88F6D897E898F897F
:100ED000988D20E030E040E85FE30E947B038823A8
:100EE0002CF481E090E09C8B8B8B3FC06D897E89D8
:100EF0008F89988D20E03FEF4FE757E40E941B0356
:100F000018164CF5698D7A8D8B8D9C8D20E030E024
:100F100040E251E40E942102DC01CB01BC01CD0181
:100F20000E944B00DC01CB019C8B8B8B0FC088ECAB
:100F300090E09A8B898B89899A890197F1F79A8B2E
:100F4000898B8B899C8901979C8B8B8B8B899C8946
:100F5000009769F714C06D897E898F89988D0E94EA
:100F60004B00DC01CB019C8B8B8B8B899C89988BF4
:100F70008F878F8598890197F1F7988B8F87A2E3E8
:100F8000B0E0E2E3F0E080818F7D8C9380E090E040
:100F9000A0E8BFE38B879C87AD87BE876B857C8588
:100FA0008D859E8520E030E04AEF54E40E942102C6
:100FB000DC01CB018F839887A987BA876F817885F9
:100FC00089859A8520E030E040E85FE30E947B035A
:100FD00088232CF481E090E09E838D833FC06F8155
:100FE000788589859A8520E03FEF4FE757E40E9496
:100FF0001B0318164CF56B857C858D859E8520E03E
:1010000030E040E251E40E942102DC01CB01BC014E
:10101000CD010E944B00DC01CB019E838D830FC06C
:1010200088EC90E09C838B838B819C810197F1F706
:101030009C838B838D819E8101979E838D838D817F
:101040009E81009769F714C06F81788589859A859C
:101050000E944B00DC01CB019E838D838D819E819C
:101060009A83898389819A810197F1F79A83898389
:10107000E9960FB6F894DEBF0FBECDBFCF91DF91DA
:101080000895DF93CF93CDB7DEB7E4E3F0E08FEFC1
:101090008083A1E3B0E0E1E3F0E08081806E8C9397
:1010A00088E30E9445068CE00E94450681E00E948C
:1010B0004506CF91DF910895DF93CF93CDB7DEB78B
:1010C000E9970FB6F894DEBF0FBECDBF89AFA2E39C
:1010D000B0E0E2E3F0E0808180688C93A2E3B0E0CE
:1010E000E2E3F0E080818F7B8C9380E090E0A0E8E9
:1010F000BFE38DAB9EABAFABB8AF6DA97EA98FA997
:1011000098AD20E030E04AEF54E40E942102DC0177
:10111000CB0189AB9AABABABBCAB69A97AA98BA964
:101120009CA920E030E040E85FE30E947B03882335
:101130002CF481E090E098AB8FA73FC069A97AA911
:101140008BA99CA920E03FEF4FE757E40E941B03C7
:1011500018164CF56DA97EA98FA998AD20E030E056
:1011600040E251E40E942102DC01CB01BC01CD012F
:101170000E944B00DC01CB0198AB8FA70FC088EC1D
:1011800090E09EA78DA78DA59EA50197F1F79EA73C
:101190008DA78FA598A9019798AB8FA78FA598A920
:1011A000009769F714C069A97AA98BA99CA90E9424
:1011B0004B00DC01CB0198AB8FA78FA598A99CA70A
:1011C0008BA78BA59CA50197F1F79CA78BA7A2E302
:1011D000B0E0E2E3F0E0808180628C9380E090E018
:1011E000A0E8BFE38FA398A7A9A7BAA76FA178A586
:1011F00089A59AA520E030E04AEF54E40E9421023C
:10120000DC01CB018BA39CA3ADA3BEA36BA17CA1EE
:101210008DA19EA120E030E040E85FE30E947B03C7
:1012200088232CF481E090E09AA389A33FC06BA1AE
:101230007CA18DA19EA120E03FEF4FE757E40E94E3
:101240001B0318164CF56FA178A589A59AA520E077
:1012500030E040E251E40E942102DC01CB01BC01FC
:10126000CD010E944B00DC01CB019AA389A30FC0E2
:1012700088EC90E098A38F8F8F8D98A10197F1F75C
:1012800098A38F8F89A19AA101979AA389A389A175
:101290009AA1009769F714C06BA17CA18DA19EA1B2
:1012A0000E944B00DC01CB019AA389A389A19AA1DA
:1012B0009E8F8D8F8D8D9E8D0197F1F79E8F8D8FD7
:1012C000E5E3F0E089AD808380E090E0A0E8BFE353
:1012D000898F9A8FAB8FBC8F698D7A8D8B8D9C8D0A
:1012E00020E030E04AEF54E40E942102DC01CB010F
:1012F0008D8B9E8BAF8BB88F6D897E898F89988DF2
:1013000020E030E040E85FE30E947B0388232CF478
:1013100081E090E09C8B8B8B3FC06D897E898F89AB
:10132000988D20E03FEF4FE757E40E941B0318160B
:101330004CF5698D7A8D8B8D9C8D20E030E040E2FC
:1013400051E40E942102DC01CB01BC01CD010E94CD
:101350004B00DC01CB019C8B8B8B0FC088EC90E0A9
:101360009A8B898B89899A890197F1F79A8B898B56
:101370008B899C8901979C8B8B8B8B899C8900978F
:1013800069F714C06D897E898F89988D0E944B0002
:10139000DC01CB019C8B8B8B8B899C89988B8F87F5
:1013A0008F8598890197F1F7988B8F87A2E3B0E03A
:1013B000E2E3F0E080818F7D8C9380E090E0A0E814
:1013C000BFE38B879C87AD87BE876B857C858D85CA
:1013D0009E8520E030E04AEF54E40E942102DC01C7
:1013E000CB018F839887A987BA876F817885898594
:1013F0009A8520E030E040E85FE30E947B03882389
:101400002CF481E090E09E838D833FC06F817885CE
:1014100089859A8520E03FEF4FE757E40E941B0340
:1014200018164CF56B857C858D859E8520E030E017
:1014300040E251E40E942102DC01CB01BC01CD015C
:101440000E944B00DC01CB019E838D830FC088EC92
:1014500090E09C838B838B819C810197F1F79C8327
:101460008B838D819E8101979E838D838D819E814B
:10147000009769F714C06F81788589859A850E94E5
:101480004B00DC01CB019E838D838D819E819A83ED
:10149000898389819A810197F1F79A838983E996F3
:1014A0000FB6F894DEBF0FBECDBFCF91DF91089588
:1014B000DF93CF9300D000D0CDB7DEB79C838B8372
:1014C0001A8219820FC029813A818B819C81FC018B
:1014D000E20FF31F80810E945C0889819A81019646
:1014E0009A83898329813A818B819C81FC01E20F57
:1014F000F31F8081882339F70F900F900F900F9082
:10150000CF91DF910895DF93CF93CDB7DEB72897C2
:101510000FB6F894DEBF0FBECDBF9C838B837E8356
:101520006D838B819C8198878F838F819885813093
:101530009105D1F08F819885823091052CF48F81AF
:101540009885009761F024C08F819885823091053D
:1015500091F08F8198858330910599F019C08D8124
:101560009E819A83898318C08D819E81805C9F4F64
:101570009A83898311C08D819E8140969A83898345
:101580000BC08D819E81805B9F4F9A83898304C0AD
:101590008D819E819A838983898180680E94450616
:1015A00028960FB6F894DEBF0FBECDBFCF91DF9166
:1015B0000895DF93CF93CDB7DEB762970FB6F89457
:1015C000DEBF0FBECDBF9A8B898B89899A899E0118
:1015D0002F5F3F4FB9014AE050E00E94DE10CE017C
:1015E00001960E94580A62960FB6F894DEBF0FBEAD
:1015F000CDBFCF91DF910895DF93CF930F92CDB7F9
:10160000DEB78983E2E5F0E01082ECE5F0E0898165
:101610008083A7E3B0E0E7E3F0E0808188608C930B
:10162000A3E5B0E0E3E5F0E0808188678C930F905C
:10163000CF91DF910895DF93CF93CDB7DEB7EBE283
:10164000F0E082E08083EAE2F0E088E18083E0E499
:10165000F0E086E88083E0E4F0E01082E9E2F0E088
:1016600087E68083CF91DF910895DF93CF930F9228
:10167000CDB7DEB78983EBE2F0E08081882F90E080
:10168000807290700097B9F3ECE2F0E0898180837A
:101690000F90CF91DF910895DF93CF93CDB7DEB751
:1016A000EBE2F0E080818823DCF7ECE2F0E080817F
:1016B000CF91DF910895DF93CF9300D000D0CDB7C5
:1016C000DEB79C838B831A8219820FC029813A81ED
:1016D0008B819C81FC01E20FF31F80810E94350BFE
:1016E00089819A8101969A83898329813A818B81A4
:1016F0009C81FC01E20FF31F8081882339F70F9052
:101700000F900F900F90CF91DF9108950F931F933B
:10171000DF93CF9300D000D0CDB7DEB79C838B830F
:101720001A82198229813A818B819C818C01020F56
:10173000131F0E944C0BF801808310C089819A818D
:1017400001969A83898329813A818B819C818C01BE
:10175000020F131F0E944C0BF801808329813A81EC
:101760008B819C81FC01E20FF31F8081833231F772
:1017700089819A812B813C81F901E80FF91F108240
:101780000F900F900F900F90CF91DF911F910F91BD
:1017900008950F931F93DF93CF93CDB7DEB7CB564A
:1017A000D0400FB6F894DEBF0FBECDBF0E944108F7
:1017B0000E941B0B88E50E94350BFE01E15AFF4F8A
:1017C00080E090E0A8E4B2E480839183A283B383B5
:1017D0008E01055A1F4FFE01E15AFF4F6081718152
:1017E0008281938120E030E04AEF54E40E9421029C
:1017F000DC01CB01F80180839183A283B383FE01D6
:10180000E55AFF4F608171818281938120E030E051
:1018100040E85FE30E947B03882344F4FE01E75A1B
:10182000FF4F81E090E09183808364C0FE01E55A20
:10183000FF4F608171818281938120E03FEF4FE70C
:1018400057E40E941B0318160CF043C0FE01E15A36
:10185000FF4F608171818281938120E030E040E21E
:1018600051E40E942102DC01CB018E01075A1F4F77
:10187000BC01CD010E944B00DC01CB01F80191833A
:1018800080831FC0FE01E95AFF4F88EC90E09183EE
:101890008083FE01E95AFF4F808191810197F1F722
:1018A000FE01E95AFF4F91838083DE01A75ABF4FA3
:1018B000FE01E75AFF4F80819181019711969C9319
:1018C0008E93FE01E75AFF4F808191810097D1F6F8
:1018D00027C08E01075A1F4FFE01E55AFF4F608156
:1018E0007181828193810E944B00DC01CB01F80160
:1018F00091838083DE01AB5ABF4FFE01E75AFF4F51
:10190000808191818D939C93FE01EB5AFF4F8081E2
:1019100091810197F1F7FE01EB5AFF4F918380838C
:1019200080E090E060E070E00E94830A81E00E9425
:10193000450680E690E00E94580AFE01E959FF4FF3
:101940008091970090919800A0919900B0919A0091
:1019500080839183A283B383FE01EB59FF4F1182F1
:101960001082FE01E559FF4F80919B008083FE01AC
:10197000ED59FF4F1182108281E090E060E070E04D
:101980000E94830A0E94A5059093A9008093A80055
:10199000FE01EF5AFF4F80E090E0A8E4B3E48083BB
:1019A0009183A283B3838E01035B1F4FFE01EF5A25
:1019B000FF4F608171818281938120E030E04AEFA6
:1019C00054E40E942102DC01CB01F8018083918361
:1019D000A283B383FE01E35BFF4F6081718182814B
:1019E000938120E030E040E85FE30E947B0388239E
:1019F00044F4FE01E55BFF4F81E090E0918380833A
:101A000064C0FE01E35BFF4F60817181828193813D
:101A100020E03FEF4FE757E40E941B0318160CF03D
:101A200043C0FE01EF5AFF4F608171818281938133
:101A300020E030E040E251E40E942102DC01CB01D1
:101A40008E01055B1F4FBC01CD010E944B00DC01E4
:101A5000CB01F801918380831FC0FE01E75BFF4F3C
:101A600088EC90E091838083FE01E75BFF4F8081EB
:101A700091810197F1F7FE01E75BFF4F918380832E
:101A8000DE01A55BBF4FFE01E55BFF4F80819181C9
:101A9000019711969C938E93FE01E55BFF4F808129
:101AA00091810097D1F628C08E01055B1F4FFE0182
:101AB000E35BFF4F60817181828193810E944B00C3
:101AC000DC01CB01F80191838083DE01A95BBF4F6C
:101AD000FE01E55BFF4F8081918111969C938E936F
:101AE000FE01E95BFF4F808191810197F1F7FE01D3
:101AF000E95BFF4F918380838091A8009091A900BA
:101B00008A329105D1F4FE01ED59FF4F20813181D8
:101B1000DE01AD59BF4FFE01ED59FF4F808191812C
:101B200001968D939C9382E090E0B9010E94830A14
:101B30008FE690E00E94580AECC08091A800909136
:101B4000A90083329105D1F4FE01ED59FF4F2081A8
:101B50003181DE01AD59BF4FFE01ED59FF4F80814C
:101B6000918101968D939C9382E090E0B9010E944F
:101B7000830A81E790E00E94580ACBC0FE01ED592C
:101B8000FF4F2081318182E090E0B9010E94830AF9
:101B90008091A8009091A9000E94D90AFE01ED5BF6
:101BA000FF4F80E090E0ACE8B2E480839183A283B1
:101BB000B3838E01015C1F4FFE01ED5BFF4F60811F
:101BC00071818281938120E030E04AEF54E40E94E9
:101BD0002102DC01CB01F80180839183A283B383CE
:101BE000FE01FF96608171818281938120E030E067
:101BF00040E85FE30E947B0388232CF481E090E0BF
:101C00009EAF8DAF46C0FE01FF96608171818281DB
:101C1000938120E03FEF4FE757E40E941B03181623
:101C200064F5FE01ED5BFF4F6081718182819381DC
:101C300020E030E040E251E40E942102DC01CB01CF
:101C4000BC01CD010E944B00DC01CB019EAF8DAFEA
:101C50000FC088EC90E09CAF8BAF8BAD9CAD019733
:101C6000F1F79CAF8BAF8DAD9EAD01979EAF8DAF61
:101C70008DAD9EAD009769F716C0FE01FF9660819D
:101C80007181828193810E944B00DC01CB019EAF68
:101C90008DAF8DAD9EAD9AAF89AF89AD9AAD0197ED
:101CA000F1F79AAF89AF8091A8009091A9009E01A9
:101CB00025593F4FB9014AE050E00E94DE10FE0175
:101CC000ED59FF4F20813181CE0185599F4F482F1B
:101CD000CE0189599F4FFC01E20FF31F4083FE01A3
:101CE000ED59FF4F2081318182E090E0B9010E94DF
:101CF000830A8FE690E00E94580ADE01AD59BF4F7B
:101D0000FE01ED59FF4F80819181019611969C93C0
:101D10008E93FE01ED59FF4F808191810197FC0167
:101D2000EC55FF4F9081FE01E559FF4F80819817D8
:101D300041F4FE01EB59FF4F81E090E091838083F5
:101D400005C0FE01EB59FF4F11821082FE01ED59D3
:101D5000FF4F808191818430910509F00DCEFE0105
:101D6000EB59FF4F808191818130910509F0FAC0D4
:101D7000FE01EB59FF4F118210828FE40E94350B58
:101D800080E090E0A8E4B2E48DAB9EABAFABB8AF1F
:101D90006DA97EA98FA998AD20E030E04AEF54E408
:101DA0000E942102DC01CB0189AB9AABABABBCAB8F
:101DB00069A97AA98BA99CA920E030E040E85FE3FB
:101DC0000E947B0388232CF481E090E098AB8FA7DE
:101DD0003FC069A97AA98BA99CA920E03FEF4FE7F2
:101DE00057E40E941B0318164CF56DA97EA98FA914
:101DF00098AD20E030E040E251E40E942102DC0195
:101E0000CB01BC01CD010E944B00DC01CB0198ABA2
:101E10008FA70FC088EC90E09EA78DA78DA59EA5EB
:101E20000197F1F79EA78DA78FA598A9019798AB69
:101E30008FA78FA598A9009769F714C069A97AA9F7
:101E40008BA99CA90E944B00DC01CB0198AB8FA70A
:101E50008FA598A99CA78BA78BA59CA50197F1F7A7
:101E60009CA78BA781E00E94450680E090E060E09F
:101E700070E00E94830A83E790E00E94580A80E0A5
:101E800090E0AAEFB4E48FA398A7A9A7BAA76FA17F
:101E900078A589A59AA520E030E04AEF54E40E9495
:101EA0002102DC01CB018BA39CA3ADA3BEA36BA13C
:101EB0007CA18DA19EA120E030E040E85FE30E947C
:101EC0007B0388232CF481E090E09AA389A33FC090
:101ED0006BA17CA18DA19EA120E03FEF4FE757E4CD
:101EE0000E941B0318164CF56FA178A589A59AA529
:101EF00020E030E040E251E40E942102DC01CB010D
:101F0000BC01CD010E944B00DC01CB019AA389A347
:101F10000FC088EC90E098A38F8F8F8D98A10197C8
:101F2000F1F798A38F8F89A19AA101979AA389A30A
:101F300089A19AA1009769F7F3CC6BA17CA18DA12F
:101F40009EA10E944B00DC01CB019AA389A389A129
:101F50009AA19E8F8D8F8D8D9E8D0197F1F79E8F0B
:101F60008D8FDECC88E50E94350B80E090E0A8E400
:101F7000B2E4898F9A8FAB8FBC8F698D7A8D8B8DF0
:101F80009C8D20E030E04AEF54E40E942102DC0105
:101F9000CB018D8B9E8BAF8BB88F6D897E898F899E
:101FA000988D20E030E040E85FE30E947B038823C7
:101FB0002CF481E090E09C8B8B8B3FC06D897E89F7
:101FC0008F89988D20E03FEF4FE757E40E941B0375
:101FD00018164CF5698D7A8D8B8D9C8D20E030E044
:101FE00040E251E40E942102DC01CB01BC01CD01A1
:101FF0000E944B00DC01CB019C8B8B8B0FC088ECCB
:1020000090E09A8B898B89899A890197F1F79A8B4D
:10201000898B8B899C8901979C8B8B8B8B899C8965
:10202000009769F714C06D897E898F89988D0E9409
:102030004B00DC01CB019C8B8B8B8B899C89988B13
:102040008F878F8598890197F1F7988B8F8781E02B
:102050000E94450680E090E060E070E00E94830A04
:102060008BE890E00E94580A80E090E0A8E4B3E496
:102070008B879C87AD87BE876B857C858D859E858C
:1020800020E030E04AEF54E40E942102DC01CB0161
:102090008F839887A987BA876F81788589859A8584
:1020A00020E030E040E85FE30E947B0388232CF4CB
:1020B00081E090E09E838D833FC06F817885898524
:1020C0009A8520E03FEF4FE757E40E941B03181664
:1020D0004CF56B857C858D859E8520E030E040E267
:1020E00051E40E942102DC01CB01BC01CD010E9420
:1020F0004B00DC01CB019E838D830FC088EC90E008
:102100009C838B838B819C810197F1F79C838B83CC
:102110008D819E8101979E838D838D819E81009705
:1021200069F7FECB6F81788589859A850E944B007F
:10213000DC01CB019E838D838D819E819A8389836F
:1021400089819A810197F1F79A838983E9CB2F924C
:102150003F924F925F926F927F928F929F92AF9237
:10216000BF92CF92DF92EF92FF920F931F93CF9384
:10217000DF93CDB7DEB7CA1BDB0B0FB6F894DEBF1B
:102180000FBECDBF09942A88398848885F846E8441
:102190007D848C849B84AA84B984C884DF80EE808B
:1021A000FD800C811B81AA81B981CE0FD11D0FB694
:1021B000F894DEBF0FBECDBFED010895FB019F0176
:1021C000E8944230C4F04532B4F44A3029F497FB25
:1021D0001EF4909581959F4F642F77270E940F11D1
:1021E000805D8A330CF0895D8193CB010097A1F764
:1021F00016F45DE251931082C9010C94FF10DC01CA
:10220000FC01672F71917723E1F7329704C07C912D
:102210006D9370836291AE17BF07C8F30895AA1B30
:10222000BB1B51E107C0AA1FBB1FA617B70710F0C1
:10223000A61BB70B881F991F5A95A9F780959095F3
:0A224000BC01CD010895F894FFCF12
:10224A00456E7465722050617373776F7264002AE9
:10225A00002300446F6F72204F70656E20666F72A4
:10226A002032207365636F6E647300547279204163
:10227A006761696E21210000000000000000000073
:08228A00000000003139393673
:00000001FF
